{
  "contractName": "Contacts",
  "abi": [
    {
      "inputs": [],
      "payable": false,
      "stateMutability": "nonpayable",
      "type": "constructor"
    },
    {
      "constant": true,
      "inputs": [
        {
          "internalType": "uint256",
          "name": "",
          "type": "uint256"
        }
      ],
      "name": "contacts",
      "outputs": [
        {
          "internalType": "uint256",
          "name": "id",
          "type": "uint256"
        },
        {
          "internalType": "string",
          "name": "name",
          "type": "string"
        },
        {
          "internalType": "string",
          "name": "phone",
          "type": "string"
        }
      ],
      "payable": false,
      "stateMutability": "view",
      "type": "function"
    },
    {
      "constant": true,
      "inputs": [],
      "name": "count",
      "outputs": [
        {
          "internalType": "uint256",
          "name": "",
          "type": "uint256"
        }
      ],
      "payable": false,
      "stateMutability": "view",
      "type": "function"
    },
    {
      "constant": true,
      "inputs": [],
      "name": "flag",
      "outputs": [
        {
          "internalType": "uint256",
          "name": "",
          "type": "uint256"
        }
      ],
      "payable": false,
      "stateMutability": "view",
      "type": "function"
    },
    {
      "constant": true,
      "inputs": [
        {
          "internalType": "uint256",
          "name": "",
          "type": "uint256"
        }
      ],
      "name": "values",
      "outputs": [
        {
          "internalType": "uint256",
          "name": "",
          "type": "uint256"
        }
      ],
      "payable": false,
      "stateMutability": "view",
      "type": "function"
    },
    {
      "constant": false,
      "inputs": [
        {
          "internalType": "string",
          "name": "_name",
          "type": "string"
        },
        {
          "internalType": "string",
          "name": "_phone",
          "type": "string"
        }
      ],
      "name": "createContact",
      "outputs": [],
      "payable": false,
      "stateMutability": "nonpayable",
      "type": "function"
    },
    {
      "constant": true,
      "inputs": [],
      "name": "checkAddress",
      "outputs": [
        {
          "internalType": "address",
          "name": "",
          "type": "address"
        }
      ],
      "payable": false,
      "stateMutability": "view",
      "type": "function"
    },
    {
      "constant": false,
      "inputs": [],
      "name": "sendEther",
      "outputs": [],
      "payable": true,
      "stateMutability": "payable",
      "type": "function"
    }
  ],
  "bytecode": "0x608060405260008055600060015534801561001957600080fd5b506100946040518060400160405280600c81526020017f5a616661722053616c65656d00000000000000000000000000000000000000008152506040518060400160405280600981526020017f313233313233313233000000000000000000000000000000000000000000000081525061009960201b60201c565b6101cb565b600080815480929190600101919050555060405180606001604052806000548152602001838152602001828152506003600080548152602001908152602001600020600082015181600001556020820151816001019080519060200190610101929190610126565b50604082015181600201908051906020019061011e929190610126565b509050505050565b828054600181600116156101000203166002900490600052602060002090601f016020900481019282601f1061016757805160ff1916838001178555610195565b82800160010185558215610195579182015b82811115610194578251825591602001919060010190610179565b5b5090506101a291906101a6565b5090565b6101c891905b808211156101c45760008160009055506001016101ac565b5090565b90565b610737806101da6000396000f3fe6080604052600436106100705760003560e01c80633dce49201161004e5780633dce4920146101015780635e383d2114610260578063890eba68146102af578063e0f478cb146102da57610070565b806306661abd146100755780630e29df22146100a05780631256fa53146100aa575b600080fd5b34801561008157600080fd5b5061008a610401565b6040518082815260200191505060405180910390f35b6100a8610407565b005b3480156100b657600080fd5b506100bf610447565b604051808273ffffffffffffffffffffffffffffffffffffffff1673ffffffffffffffffffffffffffffffffffffffff16815260200191505060405180910390f35b34801561010d57600080fd5b5061025e6004803603604081101561012457600080fd5b810190808035906020019064010000000081111561014157600080fd5b82018360208201111561015357600080fd5b8035906020019184600183028401116401000000008311171561017557600080fd5b91908080601f016020809104026020016040519081016040528093929190818152602001838380828437600081840152601f19601f820116905080830192505050505050509192919290803590602001906401000000008111156101d857600080fd5b8201836020820111156101ea57600080fd5b8035906020019184600183028401116401000000008311171561020c57600080fd5b91908080601f016020809104026020016040519081016040528093929190818152602001838380828437600081840152601f19601f82011690508083019250505050505050919291929050505061044f565b005b34801561026c57600080fd5b506102996004803603602081101561028357600080fd5b81019080803590602001909291905050506104dc565b6040518082815260200191505060405180910390f35b3480156102bb57600080fd5b506102c46104fd565b6040518082815260200191505060405180910390f35b3480156102e657600080fd5b50610313600480360360208110156102fd57600080fd5b8101908080359060200190929190505050610503565b604051808481526020018060200180602001838103835285818151815260200191508051906020019080838360005b8381101561035d578082015181840152602081019050610342565b50505050905090810190601f16801561038a5780820380516001836020036101000a031916815260200191505b50838103825284818151815260200191508051906020019080838360005b838110156103c35780820151818401526020810190506103a8565b50505050905090810190601f1680156103f05780820380516001836020036101000a031916815260200191505b509550505050505060405180910390f35b60005481565b6001600081548092919060010191905055506002349080600181540180825580915050906001820390600052602060002001600090919290919091505550565b600033905090565b6000808154809291906001019190505550604051806060016040528060005481526020018381526020018281525060036000805481526020019081526020016000206000820151816000015560208201518160010190805190602001906104b792919061065d565b5060408201518160020190805190602001906104d492919061065d565b509050505050565b600281815481106104e957fe5b906000526020600020016000915090505481565b60015481565b6003602052806000526040600020600091509050806000015490806001018054600181600116156101000203166002900480601f0160208091040260200160405190810160405280929190818152602001828054600181600116156101000203166002900480156105b55780601f1061058a576101008083540402835291602001916105b5565b820191906000526020600020905b81548152906001019060200180831161059857829003601f168201915b505050505090806002018054600181600116156101000203166002900480601f0160208091040260200160405190810160405280929190818152602001828054600181600116156101000203166002900480156106535780601f1061062857610100808354040283529160200191610653565b820191906000526020600020905b81548152906001019060200180831161063657829003601f168201915b5050505050905083565b828054600181600116156101000203166002900490600052602060002090601f016020900481019282601f1061069e57805160ff19168380011785556106cc565b828001600101855582156106cc579182015b828111156106cb5782518255916020019190600101906106b0565b5b5090506106d991906106dd565b5090565b6106ff91905b808211156106fb5760008160009055506001016106e3565b5090565b9056fea265627a7a72315820d0d86fa85f24fb17eef60baf500b717f39ae8e62b935b24d3c9346fa0291c76a64736f6c63430005100032",
  "source": "pragma solidity >=0.4.22 <0.9.0;\n\ncontract Contacts {\n  uint public count = 0; // state variable\n  \n  uint public flag = 0;\n  uint256[] public values;\n\n  struct Contact {\n    uint id;\n    string name;\n    string phone;\n  }\n  \n  constructor() public {\n    createContact('Zafar Saleem', '123123123');\n  }\n  \n  mapping(uint => Contact) public contacts;\n  \n  function createContact(string memory _name, string memory _phone) public {\n    count++;\n    contacts[count] = Contact(count, _name, _phone);\n  }\n\n  function checkAddress() public view returns(address){\n\n    return msg.sender;\n\n  }\n\n  function sendEther() external payable {\n    flag++;\n    values.push(msg.value);\n  }\n\n}",
  "sourcePath": "/Users/macbook/Desktop/web3/FirstDapp/contracts/contracts/contract.sol",
  "compiler": {
    "name": "solc",
    "version": "0.5.16+commit.9c3226ce.Emscripten.clang"
  },
  "schemaVersion": "3.4.16",
  "updatedAt": "2024-03-05T20:27:57.430Z",
  "networkType": "ethereum",
  "devdoc": {
    "methods": {}
  },
  "userdoc": {
    "methods": {}
  }
}